{
  "address": "0x01C5C75D33907fd233a14e770d05b08C34172B78",
  "abi": [
    {
      "inputs": [
        {
          "internalType": "address",
          "name": "_owner",
          "type": "address"
        },
        {
          "internalType": "address",
          "name": "_questionManagerAddress",
          "type": "address"
        },
        {
          "internalType": "address payable",
          "name": "_stakingContractAddress",
          "type": "address"
        },
        {
          "internalType": "address",
          "name": "_nftContractAddress",
          "type": "address"
        },
        {
          "internalType": "address",
          "name": "_rewardManagerAddress",
          "type": "address"
        },
        {
          "internalType": "address",
          "name": "_myPassportAddress",
          "type": "address"
        }
      ],
      "stateMutability": "nonpayable",
      "type": "constructor"
    },
    {
      "anonymous": false,
      "inputs": [
        {
          "indexed": false,
          "internalType": "uint256",
          "name": "courseId",
          "type": "uint256"
        },
        {
          "indexed": false,
          "internalType": "string",
          "name": "name",
          "type": "string"
        },
        {
          "indexed": false,
          "internalType": "address",
          "name": "provider",
          "type": "address"
        },
        {
          "indexed": false,
          "internalType": "uint256",
          "name": "stakingRequirement",
          "type": "uint256"
        }
      ],
      "name": "CourseCreated",
      "type": "event"
    },
    {
      "anonymous": false,
      "inputs": [
        {
          "indexed": false,
          "internalType": "uint256",
          "name": "courseId",
          "type": "uint256"
        },
        {
          "indexed": false,
          "internalType": "uint256",
          "name": "questionId",
          "type": "uint256"
        }
      ],
      "name": "QuestionAddedToCourse",
      "type": "event"
    },
    {
      "anonymous": false,
      "inputs": [
        {
          "indexed": false,
          "internalType": "uint256",
          "name": "courseId",
          "type": "uint256"
        },
        {
          "indexed": false,
          "internalType": "address",
          "name": "student",
          "type": "address"
        },
        {
          "indexed": false,
          "internalType": "uint256",
          "name": "questionId",
          "type": "uint256"
        }
      ],
      "name": "QuestionAnswered",
      "type": "event"
    },
    {
      "anonymous": false,
      "inputs": [
        {
          "indexed": false,
          "internalType": "uint256",
          "name": "courseId",
          "type": "uint256"
        },
        {
          "indexed": false,
          "internalType": "address",
          "name": "student",
          "type": "address"
        },
        {
          "indexed": false,
          "internalType": "uint256",
          "name": "stakingRequirement",
          "type": "uint256"
        }
      ],
      "name": "StudentEnrolled",
      "type": "event"
    },
    {
      "anonymous": false,
      "inputs": [
        {
          "indexed": false,
          "internalType": "uint256",
          "name": "courseId",
          "type": "uint256"
        },
        {
          "indexed": false,
          "internalType": "address",
          "name": "student",
          "type": "address"
        }
      ],
      "name": "StudentUnenrolled",
      "type": "event"
    },
    {
      "inputs": [
        {
          "internalType": "uint256",
          "name": "_courseId",
          "type": "uint256"
        },
        {
          "internalType": "uint256",
          "name": "_questionIndex",
          "type": "uint256"
        },
        {
          "internalType": "uint256",
          "name": "_optionIndex",
          "type": "uint256"
        },
        {
          "internalType": "address",
          "name": "_student",
          "type": "address"
        }
      ],
      "name": "answerCourseQuestion",
      "outputs": [
        {
          "internalType": "bool",
          "name": "",
          "type": "bool"
        }
      ],
      "stateMutability": "nonpayable",
      "type": "function"
    },
    {
      "inputs": [
        {
          "internalType": "uint256",
          "name": "_courseId",
          "type": "uint256"
        },
        {
          "internalType": "address",
          "name": "_student",
          "type": "address"
        }
      ],
      "name": "claimRewardTime",
      "outputs": [],
      "stateMutability": "nonpayable",
      "type": "function"
    },
    {
      "inputs": [],
      "name": "contractTag",
      "outputs": [
        {
          "internalType": "string",
          "name": "",
          "type": "string"
        }
      ],
      "stateMutability": "view",
      "type": "function"
    },
    {
      "inputs": [],
      "name": "courseCount",
      "outputs": [
        {
          "internalType": "uint256",
          "name": "",
          "type": "uint256"
        }
      ],
      "stateMutability": "view",
      "type": "function"
    },
    {
      "inputs": [
        {
          "internalType": "uint256",
          "name": "",
          "type": "uint256"
        }
      ],
      "name": "courses",
      "outputs": [
        {
          "internalType": "string",
          "name": "name",
          "type": "string"
        },
        {
          "internalType": "string",
          "name": "description",
          "type": "string"
        },
        {
          "internalType": "string",
          "name": "courseType",
          "type": "string"
        },
        {
          "internalType": "string",
          "name": "provider",
          "type": "string"
        },
        {
          "internalType": "uint256",
          "name": "enrolledStudents",
          "type": "uint256"
        },
        {
          "internalType": "uint256",
          "name": "completedStudents",
          "type": "uint256"
        },
        {
          "internalType": "uint256",
          "name": "stakingRequirement",
          "type": "uint256"
        },
        {
          "internalType": "uint256",
          "name": "nftsIssued",
          "type": "uint256"
        }
      ],
      "stateMutability": "view",
      "type": "function"
    },
    {
      "inputs": [
        {
          "internalType": "uint256",
          "name": "_courseId",
          "type": "uint256"
        },
        {
          "internalType": "string",
          "name": "_questionText",
          "type": "string"
        },
        {
          "internalType": "string[]",
          "name": "_options",
          "type": "string[]"
        },
        {
          "internalType": "uint256",
          "name": "_correctOptionIndex",
          "type": "uint256"
        }
      ],
      "name": "createAndAddQuestionToCourse",
      "outputs": [],
      "stateMutability": "nonpayable",
      "type": "function"
    },
    {
      "inputs": [
        {
          "internalType": "string",
          "name": "_name",
          "type": "string"
        },
        {
          "internalType": "string",
          "name": "_description",
          "type": "string"
        },
        {
          "internalType": "uint256",
          "name": "_stakingRequirement",
          "type": "uint256"
        },
        {
          "internalType": "string",
          "name": "_courseType",
          "type": "string"
        },
        {
          "internalType": "string",
          "name": "_provider",
          "type": "string"
        }
      ],
      "name": "createCourse",
      "outputs": [],
      "stateMutability": "nonpayable",
      "type": "function"
    },
    {
      "inputs": [
        {
          "internalType": "uint256",
          "name": "_courseId",
          "type": "uint256"
        },
        {
          "internalType": "uint256",
          "name": "_amount",
          "type": "uint256"
        },
        {
          "internalType": "uint256",
          "name": "_attemps",
          "type": "uint256"
        },
        {
          "internalType": "string",
          "name": "_description",
          "type": "string"
        }
      ],
      "name": "createRewardAttemp",
      "outputs": [],
      "stateMutability": "payable",
      "type": "function"
    },
    {
      "inputs": [
        {
          "internalType": "uint256",
          "name": "_courseId",
          "type": "uint256"
        },
        {
          "internalType": "uint256",
          "name": "_amount",
          "type": "uint256"
        },
        {
          "internalType": "uint256",
          "name": "_timeLimit",
          "type": "uint256"
        },
        {
          "internalType": "string",
          "name": "_description",
          "type": "string"
        }
      ],
      "name": "createRewardTime",
      "outputs": [],
      "stateMutability": "payable",
      "type": "function"
    },
    {
      "inputs": [
        {
          "internalType": "address",
          "name": "_student",
          "type": "address"
        },
        {
          "internalType": "uint256",
          "name": "_courseId",
          "type": "uint256"
        }
      ],
      "name": "enroll",
      "outputs": [],
      "stateMutability": "payable",
      "type": "function"
    },
    {
      "inputs": [
        {
          "internalType": "uint256",
          "name": "_courseId",
          "type": "uint256"
        },
        {
          "internalType": "address",
          "name": "_student",
          "type": "address"
        }
      ],
      "name": "finishCourse",
      "outputs": [],
      "stateMutability": "nonpayable",
      "type": "function"
    },
    {
      "inputs": [],
      "name": "getAllCourses",
      "outputs": [
        {
          "components": [
            {
              "internalType": "uint256",
              "name": "courseId",
              "type": "uint256"
            },
            {
              "internalType": "string",
              "name": "name",
              "type": "string"
            },
            {
              "internalType": "string",
              "name": "description",
              "type": "string"
            },
            {
              "internalType": "string",
              "name": "provider",
              "type": "string"
            },
            {
              "internalType": "string",
              "name": "courseType",
              "type": "string"
            },
            {
              "internalType": "uint256",
              "name": "enrolledStudents",
              "type": "uint256"
            },
            {
              "internalType": "uint256",
              "name": "stakingRequirement",
              "type": "uint256"
            }
          ],
          "internalType": "struct CourseManager.CourseSummary[]",
          "name": "",
          "type": "tuple[]"
        }
      ],
      "stateMutability": "view",
      "type": "function"
    },
    {
      "inputs": [
        {
          "internalType": "uint256",
          "name": "_courseId",
          "type": "uint256"
        }
      ],
      "name": "getCompletedStudentsCount",
      "outputs": [
        {
          "internalType": "uint256",
          "name": "",
          "type": "uint256"
        }
      ],
      "stateMutability": "view",
      "type": "function"
    },
    {
      "inputs": [
        {
          "internalType": "uint256",
          "name": "_courseId",
          "type": "uint256"
        }
      ],
      "name": "getCourseDetails",
      "outputs": [
        {
          "internalType": "string",
          "name": "",
          "type": "string"
        },
        {
          "internalType": "string",
          "name": "",
          "type": "string"
        },
        {
          "internalType": "string",
          "name": "",
          "type": "string"
        },
        {
          "internalType": "uint256",
          "name": "",
          "type": "uint256"
        },
        {
          "internalType": "uint256",
          "name": "",
          "type": "uint256"
        },
        {
          "internalType": "string",
          "name": "",
          "type": "string"
        }
      ],
      "stateMutability": "view",
      "type": "function"
    },
    {
      "inputs": [
        {
          "internalType": "uint256",
          "name": "_courseId",
          "type": "uint256"
        }
      ],
      "name": "getCourseQuestions",
      "outputs": [
        {
          "internalType": "uint256[]",
          "name": "",
          "type": "uint256[]"
        }
      ],
      "stateMutability": "view",
      "type": "function"
    },
    {
      "inputs": [
        {
          "internalType": "address",
          "name": "_student",
          "type": "address"
        }
      ],
      "name": "getEnrolledCourses",
      "outputs": [
        {
          "internalType": "uint256[]",
          "name": "",
          "type": "uint256[]"
        }
      ],
      "stateMutability": "view",
      "type": "function"
    },
    {
      "inputs": [
        {
          "internalType": "uint256",
          "name": "_courseId",
          "type": "uint256"
        }
      ],
      "name": "getNftsIssued",
      "outputs": [
        {
          "internalType": "uint256",
          "name": "",
          "type": "uint256"
        }
      ],
      "stateMutability": "view",
      "type": "function"
    },
    {
      "inputs": [
        {
          "internalType": "uint256",
          "name": "_courseId",
          "type": "uint256"
        },
        {
          "internalType": "address",
          "name": "_student",
          "type": "address"
        }
      ],
      "name": "getStudentProgress",
      "outputs": [
        {
          "internalType": "uint256",
          "name": "progressPercentage",
          "type": "uint256"
        }
      ],
      "stateMutability": "view",
      "type": "function"
    },
    {
      "inputs": [
        {
          "internalType": "uint256",
          "name": "_courseId",
          "type": "uint256"
        },
        {
          "internalType": "address",
          "name": "_student",
          "type": "address"
        }
      ],
      "name": "getStudentStartTime",
      "outputs": [
        {
          "internalType": "uint256",
          "name": "",
          "type": "uint256"
        }
      ],
      "stateMutability": "view",
      "type": "function"
    },
    {
      "inputs": [
        {
          "internalType": "uint256",
          "name": "_courseId",
          "type": "uint256"
        },
        {
          "internalType": "address",
          "name": "_student",
          "type": "address"
        }
      ],
      "name": "hasStudentCompletedCourse",
      "outputs": [
        {
          "internalType": "bool",
          "name": "",
          "type": "bool"
        }
      ],
      "stateMutability": "view",
      "type": "function"
    },
    {
      "inputs": [
        {
          "internalType": "uint256",
          "name": "_courseId",
          "type": "uint256"
        },
        {
          "internalType": "address",
          "name": "_student",
          "type": "address"
        }
      ],
      "name": "isEnrolled",
      "outputs": [
        {
          "internalType": "bool",
          "name": "",
          "type": "bool"
        }
      ],
      "stateMutability": "view",
      "type": "function"
    },
    {
      "inputs": [],
      "name": "myLearningNFT",
      "outputs": [
        {
          "internalType": "contract MyLearningNFT",
          "name": "",
          "type": "address"
        }
      ],
      "stateMutability": "view",
      "type": "function"
    },
    {
      "inputs": [],
      "name": "myPassport",
      "outputs": [
        {
          "internalType": "contract MyPassport",
          "name": "",
          "type": "address"
        }
      ],
      "stateMutability": "view",
      "type": "function"
    },
    {
      "inputs": [],
      "name": "owner",
      "outputs": [
        {
          "internalType": "address",
          "name": "",
          "type": "address"
        }
      ],
      "stateMutability": "view",
      "type": "function"
    },
    {
      "inputs": [],
      "name": "questionManager",
      "outputs": [
        {
          "internalType": "contract QuestionManager",
          "name": "",
          "type": "address"
        }
      ],
      "stateMutability": "view",
      "type": "function"
    },
    {
      "inputs": [],
      "name": "rewardManager",
      "outputs": [
        {
          "internalType": "contract RewardManager",
          "name": "",
          "type": "address"
        }
      ],
      "stateMutability": "view",
      "type": "function"
    },
    {
      "inputs": [],
      "name": "stakingManager",
      "outputs": [
        {
          "internalType": "contract StakingManager",
          "name": "",
          "type": "address"
        }
      ],
      "stateMutability": "view",
      "type": "function"
    },
    {
      "inputs": [
        {
          "internalType": "address",
          "name": "_student",
          "type": "address"
        },
        {
          "internalType": "uint256",
          "name": "_courseId",
          "type": "uint256"
        }
      ],
      "name": "unenroll",
      "outputs": [],
      "stateMutability": "nonpayable",
      "type": "function"
    },
    {
      "inputs": [
        {
          "internalType": "address",
          "name": "_user",
          "type": "address"
        },
        {
          "internalType": "uint256",
          "name": "_courseId",
          "type": "uint256"
        }
      ],
      "name": "withdrawRewardTime",
      "outputs": [],
      "stateMutability": "nonpayable",
      "type": "function"
    }
  ],
  "transactionHash": "0x72f2f124cc5dd39147904e4c66eabd43855631e5ebabe74261d693c777071109",
  "args": [
    "0xAAeCA2a5703a6ea642Dd7bCF73E1E9c39d26f12C",
    "0x8EFD93e9DDF7f9D82e161B6Db0e2Da82F6BD1F0c",
    "0x6FCC7268FD2F7aED5B8E6b28517b2E0cc1607700",
    "0x40227aA8AE6a119aCC7f6edf0626E01474b8b9cD",
    "0x241697B169f82B1941C8Ce6acf7D9dF3ad36C3ce",
    "0x3A4ADbEe30B95099280246208C6875cdaafd4059"
  ],
  "numDeployments": 1,
  "solcInputHash": "e4cc49a8f58dcef6eea2105a0f0919c8",
  "bytecode": "0x60806040523480156200001157600080fd5b5060405162002a0338038062002a038339810160408190526200003491620000c0565b600280546001600160a01b03199081166001600160a01b039889161790915560038054821696881696909617909555600480548616948716949094179093556005805485169286169290921790915560068054841691851691909117905560078054909216921691909117905562000154565b6001600160a01b0381168114620000bd57600080fd5b50565b60008060008060008060c08789031215620000da57600080fd5b8651620000e781620000a7565b6020880151909650620000fa81620000a7565b60408801519095506200010d81620000a7565b60608801519094506200012081620000a7565b60808801519093506200013381620000a7565b60a08801519092506200014681620000a7565b809150509295509295509295565b61289f80620001646000396000f3fe6080604052600436106101c25760003560e01c806386943262116100f7578063c018255311610095578063d463b33f11610064578063d463b33f14610562578063dc0716e214610582578063e4cd95c5146105a2578063f328ae4b146105c257600080fd5b8063c0182553146104e2578063c976831514610502578063c990a16014610522578063d00b1da81461054257600080fd5b806392563939116100d1578063925639391461042557806396f979d21461047b5780639b9d6063146104af578063b3427209146104c257600080fd5b806386943262146103d2578063877e3808146103f25780638da5cb5b1461040557600080fd5b806350b4549a116101645780636111ca211161013e5780636111ca211461035b578063660551591461036e57806367fc117c146103925780637d61d506146103b257600080fd5b806350b4549a146102e95780635a898b6414610309578063610b31a61461032957600080fd5b80630f4ef8a6116101a05780630f4ef8a61461024f57806322828cc21461028757806336d2c241146102a7578063477256e9146102c957600080fd5b806304e48bd1146101c75780630993031e146101f25780630f3be7281461021f575b600080fd5b3480156101d357600080fd5b506101dc6105e2565b6040516101e99190611ebe565b60405180910390f35b3480156101fe57600080fd5b5061021261020d366004611fb5565b610933565b6040516101e99190611fd7565b34801561022b57600080fd5b5061023f61023a36600461201b565b610a9b565b60405190151581526020016101e9565b34801561025b57600080fd5b5060065461026f906001600160a01b031681565b6040516001600160a01b0390911681526020016101e9565b34801561029357600080fd5b5060045461026f906001600160a01b031681565b3480156102b357600080fd5b506102c76102c236600461205a565b610c35565b005b3480156102d557600080fd5b506102c76102e436600461205a565b610c9f565b3480156102f557600080fd5b5061023f610304366004612084565b610da4565b34801561031557600080fd5b506102c7610324366004612084565b610df9565b34801561033557600080fd5b506103496103443660046120b0565b610eb1565b6040516101e9969594939291906120c9565b6102c761036936600461205a565b61114e565b34801561037a57600080fd5b5061038460015481565b6040519081526020016101e9565b34801561039e57600080fd5b5060075461026f906001600160a01b031681565b3480156103be57600080fd5b506102c76103cd3660046121e6565b6113f5565b3480156103de57600080fd5b506103846103ed366004612084565b6114a9565b6102c761040036600461229d565b61153c565b34801561041157600080fd5b5060025461026f906001600160a01b031681565b34801561043157600080fd5b5061046e6040518060400160405280601881526020017f436f75727365204d616e6167657220436f6e747261637421000000000000000081525081565b6040516101e991906122f7565b34801561048757600080fd5b5061049b6104963660046120b0565b61166b565b6040516101e998979695949392919061230a565b6102c76104bd36600461229d565b6118cb565b3480156104ce57600080fd5b506102126104dd3660046120b0565b6119c1565b3480156104ee57600080fd5b506103846104fd3660046120b0565b611a45565b34801561050e57600080fd5b5061023f61051d366004612084565b611a80565b34801561052e57600080fd5b5061038461053d366004612084565b611ad3565b34801561054e57600080fd5b506102c761055d366004612382565b611b86565b34801561056e57600080fd5b5061038461057d3660046120b0565b611cfb565b34801561058e57600080fd5b506102c761059d366004612084565b611d36565b3480156105ae57600080fd5b5060055461026f906001600160a01b031681565b3480156105ce57600080fd5b5060035461026f906001600160a01b031681565b6060600060015467ffffffffffffffff8111156106015761060161212f565b60405190808252806020026020018201604052801561067257816020015b61065f6040518060e00160405280600081526020016060815260200160608152602001606081526020016060815260200160008152602001600081525090565b81526020019060019003908161061f5790505b50905060005b60015481101561092d5760008181526020818152604091829020825160e08101909352838352805490929182019083906106b19061247b565b80601f01602080910402602001604051908101604052809291908181526020018280546106dd9061247b565b801561072a5780601f106106ff5761010080835404028352916020019161072a565b820191906000526020600020905b81548152906001019060200180831161070d57829003601f168201915b505050505081526020018260010180546107439061247b565b80601f016020809104026020016040519081016040528092919081815260200182805461076f9061247b565b80156107bc5780601f10610791576101008083540402835291602001916107bc565b820191906000526020600020905b81548152906001019060200180831161079f57829003601f168201915b505050505081526020018260030180546107d59061247b565b80601f01602080910402602001604051908101604052809291908181526020018280546108019061247b565b801561084e5780601f106108235761010080835404028352916020019161084e565b820191906000526020600020905b81548152906001019060200180831161083157829003601f168201915b505050505081526020018260020180546108679061247b565b80601f01602080910402602001604051908101604052809291908181526020018280546108939061247b565b80156108e05780601f106108b5576101008083540402835291602001916108e0565b820191906000526020600020905b8154815290600101906020018083116108c357829003601f168201915b5050505050815260200182600401548152602001826007015481525083838151811061090e5761090e6124af565b6020026020010181905250508080610925906124db565b915050610678565b50919050565b6060600060015467ffffffffffffffff8111156109525761095261212f565b60405190808252806020026020018201604052801561097b578160200160208202803683370190505b5090506000805b6001548110156109f6576000818152602081815260408083206001600160a01b038916845260090190915290205460ff16156109e457808383815181106109cb576109cb6124af565b6020908102919091010152816109e0816124db565b9250505b806109ee816124db565b915050610982565b5060008167ffffffffffffffff811115610a1257610a1261212f565b604051908082528060200260200182016040528015610a3b578160200160208202803683370190505b50905060005b82811015610a9257838181518110610a5b57610a5b6124af565b6020026020010151828281518110610a7557610a756124af565b602090810291909101015280610a8a816124db565b915050610a41565b50949350505050565b60006001548510610ac75760405162461bcd60e51b8152600401610abe906124f4565b60405180910390fd5b600085815260208190526040812060068101805491929187908110610aee57610aee6124af565b60009182526020808320909101543383526009850190915260409091205490915060ff16610b2e5760405162461bcd60e51b8152600401610abe9061251f565b600354604051634f3545ad60e11b815260048101839052602481018790526001600160a01b0386811660448301526000921690639e6a8b5a906064016020604051808303816000875af1158015610b89573d6000803e3d6000fd5b505050506040513d601f19601f82011682018060405250810190610bad9190612556565b90508015610c2a576001600160a01b0385166000908152600a840160205260408120805491610bdb836124db565b9091555050604080518981526001600160a01b03871660208201529081018390527f7c97127cf48563c465c3506f84e1c1e387f992976bd64b007bf72c0b078ce0369060600160405180910390a15b979650505050505050565b6006546040516336d2c24160e01b81526001600160a01b03848116600483015260248201849052909116906336d2c24190604401600060405180830381600087803b158015610c8357600080fd5b505af1158015610c97573d6000803e3d6000fd5b505050505050565b806001548110610cc15760405162461bcd60e51b8152600401610abe90612578565b6000828152602081815260408083206001600160a01b0387168452600981019092529091205460ff16610d255760405162461bcd60e51b815260206004820152600c60248201526b139bdd08195b9c9bdb1b195960a21b6044820152606401610abe565b6001600160a01b03841660009081526009820160205260408120805460ff1916905560048201805491610d57836125a7565b9091555050604080518481526001600160a01b03861660208201527fe7992eda23f7707c89554b43fe24db6b90bbcd976db1a1d5d4ba58b12327cfa391015b60405180910390a150505050565b6000826001548110610dc85760405162461bcd60e51b8152600401610abe90612578565b6000848152602081815260408083206001600160a01b0387168452600c0190915290205460ff1691505b5092915050565b6000828152602081815260408083206001600160a01b0385168452600981019092529091205460ff16610e3e5760405162461bcd60e51b8152600401610abe9061251f565b6006546040516362b9214f60e11b8152600481018590526001600160a01b038481166024830152426044830181905292169063c572429e90606401600060405180830381600087803b158015610e9357600080fd5b505af1158015610ea7573d6000803e3d6000fd5b5050505050505050565b60608060606000806060866001548110610edd5760405162461bcd60e51b8152600401610abe90612578565b600088815260208190526040902060048101546007820154825483926001840192600385019260028601908690610f139061247b565b80601f0160208091040260200160405190810160405280929190818152602001828054610f3f9061247b565b8015610f8c5780601f10610f6157610100808354040283529160200191610f8c565b820191906000526020600020905b815481529060010190602001808311610f6f57829003601f168201915b50505050509550848054610f9f9061247b565b80601f0160208091040260200160405190810160405280929190818152602001828054610fcb9061247b565b80156110185780601f10610fed57610100808354040283529160200191611018565b820191906000526020600020905b815481529060010190602001808311610ffb57829003601f168201915b5050505050945083805461102b9061247b565b80601f01602080910402602001604051908101604052809291908181526020018280546110579061247b565b80156110a45780601f10611079576101008083540402835291602001916110a4565b820191906000526020600020905b81548152906001019060200180831161108757829003601f168201915b505050505093508080546110b79061247b565b80601f01602080910402602001604051908101604052809291908181526020018280546110e39061247b565b80156111305780601f1061110557610100808354040283529160200191611130565b820191906000526020600020905b81548152906001019060200180831161111357829003601f168201915b50505050509050975097509750975097509750505091939550919395565b8060015481106111705760405162461bcd60e51b8152600401610abe90612578565b6000828152602081815260408083206001600160a01b0387168452600981019092529091205460ff16156111d95760405162461bcd60e51b815260206004820152601060248201526f105b1c9958591e48195b9c9bdb1b195960821b6044820152606401610abe565b8060070154341461122c5760405162461bcd60e51b815260206004820152601860248201527f496e636f7272656374207374616b696e6720616d6f756e7400000000000000006044820152606401610abe565b600754604051635e197a0f60e01b81526001600160a01b03868116600483015290911690635e197a0f90602401602060405180830381865afa158015611276573d6000803e3d6000fd5b505050506040513d601f19601f8201168201806040525081019061129a9190612556565b6112f55760405162461bcd60e51b815260206004820152602660248201527f53747564656e74206d757374206861766520612070617373706f727420746f20604482015265195b9c9bdb1b60d21b6064820152608401610abe565b6004805460405162e2920560e31b81526001600160a01b03878116938201939093526024810186905291169063071490289034906044016000604051808303818588803b15801561134557600080fd5b505af1158015611359573d6000803e3d6000fd5b5050506001600160a01b03861660009081526009840160205260408120805460ff1916600117905560048401805493509150611394836124db565b90915550506001600160a01b0384166000818152600b8301602090815260409182902042905581518681529081019290925234908201527fa996df98e7756ee3603d273d5cb24dc656c048bf8eb98426146a0b8c05bdd23390606001610d96565b6001546000908152602081905260409020806114118782612609565b50600181016114208682612609565b506002810161142f8482612609565b506003810161143e8382612609565b5060006004820155600781018490556001546040517f48ecb80c764507d9b513e5fbdba76e8b8177d246e4314b2718204d1027f9967391611484918990339089906126c9565b60405180910390a16001805490600061149c836124db565b9190505550505050505050565b60008260015481106114cd5760405162461bcd60e51b8152600401610abe90612578565b6000848152602081815260408083206001600160a01b038716845260090190915290205460ff166115105760405162461bcd60e51b8152600401610abe906126fe565b50506000918252602082815260408084206001600160a01b03939093168452600b909201905290205490565b600154841061155d5760405162461bcd60e51b8152600401610abe906124f4565b600084815260208190526040812060030180546115799061247b565b80601f01602080910402602001604051908101604052809291908181526020018280546115a59061247b565b80156115f25780601f106115c7576101008083540402835291602001916115f2565b820191906000526020600020905b8154815290600101906020018083116115d557829003601f168201915b5050600654604051639fa1342f60e01b81529495506001600160a01b031693639fa1342f9350349250611632915089908990899088908a90600401612740565b6000604051808303818588803b15801561164b57600080fd5b505af115801561165f573d6000803e3d6000fd5b50505050505050505050565b6000602081905290815260409020805481906116869061247b565b80601f01602080910402602001604051908101604052809291908181526020018280546116b29061247b565b80156116ff5780601f106116d4576101008083540402835291602001916116ff565b820191906000526020600020905b8154815290600101906020018083116116e257829003601f168201915b5050505050908060010180546117149061247b565b80601f01602080910402602001604051908101604052809291908181526020018280546117409061247b565b801561178d5780601f106117625761010080835404028352916020019161178d565b820191906000526020600020905b81548152906001019060200180831161177057829003601f168201915b5050505050908060020180546117a29061247b565b80601f01602080910402602001604051908101604052809291908181526020018280546117ce9061247b565b801561181b5780601f106117f05761010080835404028352916020019161181b565b820191906000526020600020905b8154815290600101906020018083116117fe57829003601f168201915b5050505050908060030180546118309061247b565b80601f016020809104026020016040519081016040528092919081815260200182805461185c9061247b565b80156118a95780601f1061187e576101008083540402835291602001916118a9565b820191906000526020600020905b81548152906001019060200180831161188c57829003601f168201915b5050505050908060040154908060050154908060070154908060080154905088565b60015484106118ec5760405162461bcd60e51b8152600401610abe906124f4565b600084815260208190526040812060030180546119089061247b565b80601f01602080910402602001604051908101604052809291908181526020018280546119349061247b565b80156119815780601f1061195657610100808354040283529160200191611981565b820191906000526020600020905b81548152906001019060200180831161196457829003601f168201915b505060065460405163a286e04f60e01b81529495506001600160a01b03169363a286e04f9350349250611632915089908990899088908a90600401612740565b606060015482106119e45760405162461bcd60e51b8152600401610abe906124f4565b6000828152602081815260409182902060060180548351818402810184019094528084529091830182828015611a3957602002820191906000526020600020905b815481526020019060010190808311611a25575b50505050509050919050565b6000816001548110611a695760405162461bcd60e51b8152600401610abe90612578565b505060009081526020819052604090206005015490565b6000826001548110611aa45760405162461bcd60e51b8152600401610abe90612578565b50506000918252602082815260408084206001600160a01b039390931684526009909201905290205460ff1690565b6000826001548110611af75760405162461bcd60e51b8152600401610abe90612578565b6000848152602081815260408083206001600160a01b0387168452600981019092529091205460ff16611b3c5760405162461bcd60e51b8152600401610abe906126fe565b60068101546000819003611b5557600093505050610df2565b6001600160a01b0385166000908152600a8301602052604090205481611b7c826064612783565b610c2a91906127a0565b836001548110611ba85760405162461bcd60e51b8152600401610abe90612578565b600354604051632399dd4360e21b81526001600160a01b0390911690638e67750c90611bdc908790879087906004016127c2565b600060405180830381600087803b158015611bf657600080fd5b505af1158015611c0a573d6000803e3d6000fd5b5050505060006001600360009054906101000a90046001600160a01b03166001600160a01b0316631468aa2c6040518163ffffffff1660e01b8152600401602060405180830381865afa158015611c65573d6000803e3d6000fd5b505050506040513d601f19601f82011682018060405250810190611c89919061283d565b611c939190612856565b60008781526020818152604080832060060180546001810182559084529282902090920183905581518981529081018390529192507f5f17526608e8aaed694fffcccbe98b74a2749911b5088c6fa1459d70fc83b623910160405180910390a1505050505050565b6000816001548110611d1f5760405162461bcd60e51b8152600401610abe90612578565b505060009081526020819052604090206008015490565b816001548110611d585760405162461bcd60e51b8152600401610abe90612578565b6000838152602081815260408083206001600160a01b0386168452600981019092529091205460ff16611d9d5760405162461bcd60e51b8152600401610abe9061251f565b6006810154611e015760405162461bcd60e51b815260206004820152602a60248201527f54686520636f75727365206d7573742068617665206174206c65617374206f6e604482015269329038bab2b9ba34b7b760b11b6064820152608401610abe565b6001600160a01b0383166000908152600c820160205260408120805460ff1916600117905560058201805491611e36836124db565b90915550506001600160a01b03831660009081526009820160205260408120805460ff1916905560048201805491611e6d836125a7565b919050555050505050565b6000815180845260005b81811015611e9e57602081850181015186830182015201611e82565b506000602082860101526020601f19601f83011685010191505092915050565b60006020808301818452808551808352604092508286019150828160051b87010184880160005b83811015611f8b57603f19898403018552815160e08151855288820151818a870152611f1382870182611e78565b9150508782015185820389870152611f2b8282611e78565b91505060608083015186830382880152611f458382611e78565b9250505060808083015186830382880152611f608382611e78565b60a0858101519089015260c09485015194909701939093525050509386019390860190600101611ee5565b509098975050505050505050565b80356001600160a01b0381168114611fb057600080fd5b919050565b600060208284031215611fc757600080fd5b611fd082611f99565b9392505050565b6020808252825182820181905260009190848201906040850190845b8181101561200f57835183529284019291840191600101611ff3565b50909695505050505050565b6000806000806080858703121561203157600080fd5b84359350602085013592506040850135915061204f60608601611f99565b905092959194509250565b6000806040838503121561206d57600080fd5b61207683611f99565b946020939093013593505050565b6000806040838503121561209757600080fd5b823591506120a760208401611f99565b90509250929050565b6000602082840312156120c257600080fd5b5035919050565b60c0815260006120dc60c0830189611e78565b82810360208401526120ee8189611e78565b905082810360408401526121028188611e78565b905085606084015284608084015282810360a08401526121228185611e78565b9998505050505050505050565b634e487b7160e01b600052604160045260246000fd5b604051601f8201601f1916810167ffffffffffffffff8111828210171561216e5761216e61212f565b604052919050565b600082601f83011261218757600080fd5b813567ffffffffffffffff8111156121a1576121a161212f565b6121b4601f8201601f1916602001612145565b8181528460208386010111156121c957600080fd5b816020850160208301376000918101602001919091529392505050565b600080600080600060a086880312156121fe57600080fd5b853567ffffffffffffffff8082111561221657600080fd5b61222289838a01612176565b9650602088013591508082111561223857600080fd5b61224489838a01612176565b955060408801359450606088013591508082111561226157600080fd5b61226d89838a01612176565b9350608088013591508082111561228357600080fd5b5061229088828901612176565b9150509295509295909350565b600080600080608085870312156122b357600080fd5b843593506020850135925060408501359150606085013567ffffffffffffffff8111156122df57600080fd5b6122eb87828801612176565b91505092959194509250565b602081526000611fd06020830184611e78565b600061010080835261231e8184018c611e78565b90508281036020840152612332818b611e78565b90508281036040840152612346818a611e78565b9050828103606084015261235a8189611e78565b9150508560808301528460a08301528360c08301528260e08301529998505050505050505050565b6000806000806080858703121561239857600080fd5b8435935060208086013567ffffffffffffffff808211156123b857600080fd5b6123c489838a01612176565b955060408801359150808211156123da57600080fd5b818801915088601f8301126123ee57600080fd5b8135818111156124005761240061212f565b8060051b61240f858201612145565b918252838101850191858101908c84111561242957600080fd5b86860192505b83831015612465578235858111156124475760008081fd5b6124558e89838a0101612176565b835250918601919086019061242f565b999c989b50989960600135985050505050505050565b600181811c9082168061248f57607f821691505b60208210810361092d57634e487b7160e01b600052602260045260246000fd5b634e487b7160e01b600052603260045260246000fd5b634e487b7160e01b600052601160045260246000fd5b6000600182016124ed576124ed6124c5565b5060010190565b602080825260119082015270125b9d985b1a590818dbdd5c9cd9481251607a1b604082015260600190565b6020808252601a908201527f4e6f7420656e726f6c6c656420696e2074686520636f75727365000000000000604082015260600190565b60006020828403121561256857600080fd5b81518015158114611fd057600080fd5b60208082526015908201527410dbdd5c9cd948191bd95cc81b9bdd08195e1a5cdd605a1b604082015260600190565b6000816125b6576125b66124c5565b506000190190565b601f82111561260457600081815260208120601f850160051c810160208610156125e55750805b601f850160051c820191505b81811015610c97578281556001016125f1565b505050565b815167ffffffffffffffff8111156126235761262361212f565b61263781612631845461247b565b846125be565b602080601f83116001811461266c57600084156126545750858301515b600019600386901b1c1916600185901b178555610c97565b600085815260208120601f198616915b8281101561269b5788860151825594840194600190910190840161267c565b50858210156126b95787850151600019600388901b60f8161c191681555b5050505050600190811b01905550565b8481526080602082015260006126e26080830186611e78565b6001600160a01b03949094166040830152506060015292915050565b60208082526022908201527f53747564656e74206e6f7420656e726f6c6c656420696e2074686520636f7572604082015261736560f01b606082015260800190565b85815284602082015283604082015260a06060820152600061276560a0830185611e78565b82810360808401526127778185611e78565b98975050505050505050565b808202811582820484141761279a5761279a6124c5565b92915050565b6000826127bd57634e487b7160e01b600052601260045260246000fd5b500490565b6060815260006127d56060830186611e78565b6020838203818501528186518084528284019150828160051b85010183890160005b8381101561282557601f19878403018552612813838351611e78565b948601949250908501906001016127f7565b50508095505050505050826040830152949350505050565b60006020828403121561284f57600080fd5b5051919050565b8181038181111561279a5761279a6124c556fea2646970667358221220b4d3068ef0ec2a5fc6e495ad1a33705409ee4a6250ad5272ccceca638e09fbfc64736f6c63430008140033",
  "devdoc": {
    "kind": "dev",
    "methods": {},
    "version": 1
  },
  "userdoc": {
    "kind": "user",
    "methods": {},
    "version": 1
  },
  "storageLayout": {
    "storage": [
      {
        "astId": 50,
        "contract": "contracts/CourseManager.sol:CourseManager",
        "label": "courses",
        "offset": 0,
        "slot": "0",
        "type": "t_mapping(t_uint256,t_struct(Course)42_storage)"
      },
      {
        "astId": 52,
        "contract": "contracts/CourseManager.sol:CourseManager",
        "label": "courseCount",
        "offset": 0,
        "slot": "1",
        "type": "t_uint256"
      },
      {
        "astId": 54,
        "contract": "contracts/CourseManager.sol:CourseManager",
        "label": "owner",
        "offset": 0,
        "slot": "2",
        "type": "t_address"
      },
      {
        "astId": 57,
        "contract": "contracts/CourseManager.sol:CourseManager",
        "label": "questionManager",
        "offset": 0,
        "slot": "3",
        "type": "t_contract(QuestionManager)2286"
      },
      {
        "astId": 60,
        "contract": "contracts/CourseManager.sol:CourseManager",
        "label": "stakingManager",
        "offset": 0,
        "slot": "4",
        "type": "t_contract(StakingManager)3366"
      },
      {
        "astId": 63,
        "contract": "contracts/CourseManager.sol:CourseManager",
        "label": "myLearningNFT",
        "offset": 0,
        "slot": "5",
        "type": "t_contract(MyLearningNFT)1368"
      },
      {
        "astId": 66,
        "contract": "contracts/CourseManager.sol:CourseManager",
        "label": "rewardManager",
        "offset": 0,
        "slot": "6",
        "type": "t_contract(RewardManager)2893"
      },
      {
        "astId": 69,
        "contract": "contracts/CourseManager.sol:CourseManager",
        "label": "myPassport",
        "offset": 0,
        "slot": "7",
        "type": "t_contract(MyPassport)1766"
      }
    ],
    "types": {
      "t_address": {
        "encoding": "inplace",
        "label": "address",
        "numberOfBytes": "20"
      },
      "t_array(t_uint256)dyn_storage": {
        "base": "t_uint256",
        "encoding": "dynamic_array",
        "label": "uint256[]",
        "numberOfBytes": "32"
      },
      "t_bool": {
        "encoding": "inplace",
        "label": "bool",
        "numberOfBytes": "1"
      },
      "t_contract(MyLearningNFT)1368": {
        "encoding": "inplace",
        "label": "contract MyLearningNFT",
        "numberOfBytes": "20"
      },
      "t_contract(MyPassport)1766": {
        "encoding": "inplace",
        "label": "contract MyPassport",
        "numberOfBytes": "20"
      },
      "t_contract(QuestionManager)2286": {
        "encoding": "inplace",
        "label": "contract QuestionManager",
        "numberOfBytes": "20"
      },
      "t_contract(RewardManager)2893": {
        "encoding": "inplace",
        "label": "contract RewardManager",
        "numberOfBytes": "20"
      },
      "t_contract(StakingManager)3366": {
        "encoding": "inplace",
        "label": "contract StakingManager",
        "numberOfBytes": "20"
      },
      "t_mapping(t_address,t_bool)": {
        "encoding": "mapping",
        "key": "t_address",
        "label": "mapping(address => bool)",
        "numberOfBytes": "32",
        "value": "t_bool"
      },
      "t_mapping(t_address,t_uint256)": {
        "encoding": "mapping",
        "key": "t_address",
        "label": "mapping(address => uint256)",
        "numberOfBytes": "32",
        "value": "t_uint256"
      },
      "t_mapping(t_uint256,t_struct(Course)42_storage)": {
        "encoding": "mapping",
        "key": "t_uint256",
        "label": "mapping(uint256 => struct CourseManager.Course)",
        "numberOfBytes": "32",
        "value": "t_struct(Course)42_storage"
      },
      "t_string_storage": {
        "encoding": "bytes",
        "label": "string",
        "numberOfBytes": "32"
      },
      "t_struct(Course)42_storage": {
        "encoding": "inplace",
        "label": "struct CourseManager.Course",
        "members": [
          {
            "astId": 8,
            "contract": "contracts/CourseManager.sol:CourseManager",
            "label": "name",
            "offset": 0,
            "slot": "0",
            "type": "t_string_storage"
          },
          {
            "astId": 10,
            "contract": "contracts/CourseManager.sol:CourseManager",
            "label": "description",
            "offset": 0,
            "slot": "1",
            "type": "t_string_storage"
          },
          {
            "astId": 12,
            "contract": "contracts/CourseManager.sol:CourseManager",
            "label": "courseType",
            "offset": 0,
            "slot": "2",
            "type": "t_string_storage"
          },
          {
            "astId": 14,
            "contract": "contracts/CourseManager.sol:CourseManager",
            "label": "provider",
            "offset": 0,
            "slot": "3",
            "type": "t_string_storage"
          },
          {
            "astId": 16,
            "contract": "contracts/CourseManager.sol:CourseManager",
            "label": "enrolledStudents",
            "offset": 0,
            "slot": "4",
            "type": "t_uint256"
          },
          {
            "astId": 18,
            "contract": "contracts/CourseManager.sol:CourseManager",
            "label": "completedStudents",
            "offset": 0,
            "slot": "5",
            "type": "t_uint256"
          },
          {
            "astId": 21,
            "contract": "contracts/CourseManager.sol:CourseManager",
            "label": "questionIds",
            "offset": 0,
            "slot": "6",
            "type": "t_array(t_uint256)dyn_storage"
          },
          {
            "astId": 23,
            "contract": "contracts/CourseManager.sol:CourseManager",
            "label": "stakingRequirement",
            "offset": 0,
            "slot": "7",
            "type": "t_uint256"
          },
          {
            "astId": 25,
            "contract": "contracts/CourseManager.sol:CourseManager",
            "label": "nftsIssued",
            "offset": 0,
            "slot": "8",
            "type": "t_uint256"
          },
          {
            "astId": 29,
            "contract": "contracts/CourseManager.sol:CourseManager",
            "label": "students",
            "offset": 0,
            "slot": "9",
            "type": "t_mapping(t_address,t_bool)"
          },
          {
            "astId": 33,
            "contract": "contracts/CourseManager.sol:CourseManager",
            "label": "studentProgress",
            "offset": 0,
            "slot": "10",
            "type": "t_mapping(t_address,t_uint256)"
          },
          {
            "astId": 37,
            "contract": "contracts/CourseManager.sol:CourseManager",
            "label": "studentStartTime",
            "offset": 0,
            "slot": "11",
            "type": "t_mapping(t_address,t_uint256)"
          },
          {
            "astId": 41,
            "contract": "contracts/CourseManager.sol:CourseManager",
            "label": "studentCompleted",
            "offset": 0,
            "slot": "12",
            "type": "t_mapping(t_address,t_bool)"
          }
        ],
        "numberOfBytes": "416"
      },
      "t_uint256": {
        "encoding": "inplace",
        "label": "uint256",
        "numberOfBytes": "32"
      }
    }
  }
}