{
  "address": "0x40227aA8AE6a119aCC7f6edf0626E01474b8b9cD",
  "abi": [
    {
      "inputs": [
        {
          "internalType": "string",
          "name": "_name",
          "type": "string"
        },
        {
          "internalType": "string",
          "name": "_symbol",
          "type": "string"
        }
      ],
      "stateMutability": "nonpayable",
      "type": "constructor"
    },
    {
      "anonymous": false,
      "inputs": [
        {
          "indexed": true,
          "internalType": "address",
          "name": "owner",
          "type": "address"
        },
        {
          "indexed": true,
          "internalType": "address",
          "name": "approved",
          "type": "address"
        },
        {
          "indexed": true,
          "internalType": "uint256",
          "name": "tokenId",
          "type": "uint256"
        }
      ],
      "name": "Approval",
      "type": "event"
    },
    {
      "anonymous": false,
      "inputs": [
        {
          "indexed": true,
          "internalType": "address",
          "name": "from",
          "type": "address"
        },
        {
          "indexed": true,
          "internalType": "address",
          "name": "to",
          "type": "address"
        },
        {
          "indexed": true,
          "internalType": "uint256",
          "name": "tokenId",
          "type": "uint256"
        }
      ],
      "name": "Transfer",
      "type": "event"
    },
    {
      "inputs": [
        {
          "internalType": "address",
          "name": "to",
          "type": "address"
        },
        {
          "internalType": "uint256",
          "name": "tokenId",
          "type": "uint256"
        }
      ],
      "name": "approve",
      "outputs": [],
      "stateMutability": "nonpayable",
      "type": "function"
    },
    {
      "inputs": [
        {
          "internalType": "address",
          "name": "owner",
          "type": "address"
        }
      ],
      "name": "balanceOf",
      "outputs": [
        {
          "internalType": "uint256",
          "name": "",
          "type": "uint256"
        }
      ],
      "stateMutability": "view",
      "type": "function"
    },
    {
      "inputs": [],
      "name": "contractTag",
      "outputs": [
        {
          "internalType": "string",
          "name": "",
          "type": "string"
        }
      ],
      "stateMutability": "view",
      "type": "function"
    },
    {
      "inputs": [
        {
          "internalType": "address",
          "name": "to",
          "type": "address"
        }
      ],
      "name": "mint",
      "outputs": [],
      "stateMutability": "nonpayable",
      "type": "function"
    },
    {
      "inputs": [],
      "name": "name",
      "outputs": [
        {
          "internalType": "string",
          "name": "",
          "type": "string"
        }
      ],
      "stateMutability": "view",
      "type": "function"
    },
    {
      "inputs": [
        {
          "internalType": "uint256",
          "name": "tokenId",
          "type": "uint256"
        }
      ],
      "name": "ownerOf",
      "outputs": [
        {
          "internalType": "address",
          "name": "",
          "type": "address"
        }
      ],
      "stateMutability": "view",
      "type": "function"
    },
    {
      "inputs": [],
      "name": "symbol",
      "outputs": [
        {
          "internalType": "string",
          "name": "",
          "type": "string"
        }
      ],
      "stateMutability": "view",
      "type": "function"
    },
    {
      "inputs": [
        {
          "internalType": "address",
          "name": "from",
          "type": "address"
        },
        {
          "internalType": "address",
          "name": "to",
          "type": "address"
        },
        {
          "internalType": "uint256",
          "name": "tokenId",
          "type": "uint256"
        }
      ],
      "name": "transferFrom",
      "outputs": [],
      "stateMutability": "nonpayable",
      "type": "function"
    }
  ],
  "transactionHash": "0x2a3f1646448fda57ec4f918218b11c122fd92d90a43f000234a08ba8af59b8c8",
  "args": [
    "MyLearningNFT",
    "LFT"
  ],
  "numDeployments": 1,
  "solcInputHash": "eb146c9a1ab531b4e8d8fadb8196bef9",
  "bytecode": "0x60806040523480156200001157600080fd5b5060405162000c2c38038062000c2c83398101604081905262000034916200011f565b600362000042838262000218565b50600462000051828262000218565b505050620002e4565b634e487b7160e01b600052604160045260246000fd5b600082601f8301126200008257600080fd5b81516001600160401b03808211156200009f576200009f6200005a565b604051601f8301601f19908116603f01168101908282118183101715620000ca57620000ca6200005a565b81604052838152602092508683858801011115620000e757600080fd5b600091505b838210156200010b5785820183015181830184015290820190620000ec565b600093810190920192909252949350505050565b600080604083850312156200013357600080fd5b82516001600160401b03808211156200014b57600080fd5b620001598683870162000070565b935060208501519150808211156200017057600080fd5b506200017f8582860162000070565b9150509250929050565b600181811c908216806200019e57607f821691505b602082108103620001bf57634e487b7160e01b600052602260045260246000fd5b50919050565b601f8211156200021357600081815260208120601f850160051c81016020861015620001ee5750805b601f850160051c820191505b818110156200020f57828155600101620001fa565b5050505b505050565b81516001600160401b038111156200023457620002346200005a565b6200024c8162000245845462000189565b84620001c5565b602080601f8311600181146200028457600084156200026b5750858301515b600019600386901b1c1916600185901b1785556200020f565b600085815260208120601f198616915b82811015620002b55788860151825594840194600190910190840162000294565b5085821015620002d45787850151600019600388901b60f8161c191681555b5050505050600190811b01905550565b61093880620002f46000396000f3fe608060405234801561001057600080fd5b50600436106100885760003560e01c80636a6278421161005b5780636a627842146100fe57806370a0823114610111578063925639391461013257806395d89b411461016e57600080fd5b806306fdde031461008d578063095ea7b3146100ab57806323b872dd146100c05780636352211e146100d3575b600080fd5b610095610176565b6040516100a29190610781565b60405180910390f35b6100be6100b93660046107eb565b610204565b005b6100be6100ce366004610815565b61033d565b6100e66100e1366004610851565b61048f565b6040516001600160a01b0390911681526020016100a2565b6100be61010c36600461086a565b6104ec565b61012461011f36600461086a565b6105e4565b6040519081526020016100a2565b6100956040518060400160405280601781526020017f4d794c6561726e696e674e465420436f6e74726163742100000000000000000081525081565b610095610658565b600380546101839061088c565b80601f01602080910402602001604051908101604052809291908181526020018280546101af9061088c565b80156101fc5780601f106101d1576101008083540402835291602001916101fc565b820191906000526020600020905b8154815290600101906020018083116101df57829003601f168201915b505050505081565b600061020f8261048f565b9050806001600160a01b0316836001600160a01b0316036102775760405162461bcd60e51b815260206004820181905260248201527f4170726f626163696f6e20616c2070726f706965746172696f2061637475616c60448201526064015b60405180910390fd5b336001600160a01b038216146102e15760405162461bcd60e51b815260206004820152602960248201527f4e6f207469656e6573207065726d69736f2070617261206170726f626172206560448201526839ba32903a37b5b2b760b91b606482015260840161026e565b60008281526002602052604080822080546001600160a01b0319166001600160a01b0387811691821790925591518593918516917f8c5be1e5ebec7d5bd14f71427d1e84f3dd0314c0f7b2291e5b200ac8c7c3b92591a4505050565b6103473382610665565b6103a85760405162461bcd60e51b815260206004820152602c60248201527f4e6f207469656e6573207065726d69736f2070617261207472616e736665726960448201526b391032b9ba32903a37b5b2b760a11b606482015260840161026e565b826001600160a01b03166103bb8261048f565b6001600160a01b03161461041f5760405162461bcd60e51b815260206004820152602560248201527f4e6f20657320656c2070726f706965746172696f2061637475616c2064656c206044820152643a37b5b2b760d91b606482015260840161026e565b6001600160a01b03821661047f5760405162461bcd60e51b815260206004820152602160248201527f5472616e73666572656e6369612061206c6120646972656363696f6e206365726044820152606f60f81b606482015260840161026e565b61048a8383836106b4565b505050565b6000818152602081905260408120546001600160a01b0316806104e65760405162461bcd60e51b815260206004820152600f60248201526e546f6b656e206e6f2065786973746560881b604482015260640161026e565b92915050565b6001600160a01b0381166105425760405162461bcd60e51b815260206004820152601b60248201527f446972656363696f6e206365726f206e6f207065726d69746964610000000000604482015260640161026e565b6005805490600190600061055683856108dc565b90915550506001600160a01b038216600090815260016020819052604082208054919290916105869084906108dc565b909155505060008181526020819052604080822080546001600160a01b0319166001600160a01b03861690811790915590518392907fddf252ad1be2c89b69c2b068fc378daa952ba7f163c4a11628f55a4df523b3ef908290a45050565b60006001600160a01b03821661063c5760405162461bcd60e51b815260206004820152601f60248201527f436f6e73756c74612070617261206c6120646972656363696f6e206365726f00604482015260640161026e565b506001600160a01b031660009081526001602052604090205490565b600480546101839061088c565b6000806106718361048f565b9050806001600160a01b0316846001600160a01b031614806106ac57506000838152600260205260409020546001600160a01b038581169116145b949350505050565b6001600160a01b038316600090815260016020819052604082208054919290916106df9084906108ef565b90915550506001600160a01b0382166000908152600160208190526040822080549192909161070f9084906108dc565b909155505060008181526020818152604080832080546001600160a01b038088166001600160a01b031992831681179093556002909452828520805490911690559051849391928716917fddf252ad1be2c89b69c2b068fc378daa952ba7f163c4a11628f55a4df523b3ef91a4505050565b600060208083528351808285015260005b818110156107ae57858101830151858201604001528201610792565b506000604082860101526040601f19601f8301168501019250505092915050565b80356001600160a01b03811681146107e657600080fd5b919050565b600080604083850312156107fe57600080fd5b610807836107cf565b946020939093013593505050565b60008060006060848603121561082a57600080fd5b610833846107cf565b9250610841602085016107cf565b9150604084013590509250925092565b60006020828403121561086357600080fd5b5035919050565b60006020828403121561087c57600080fd5b610885826107cf565b9392505050565b600181811c908216806108a057607f821691505b6020821081036108c057634e487b7160e01b600052602260045260246000fd5b50919050565b634e487b7160e01b600052601160045260246000fd5b808201808211156104e6576104e66108c6565b818103818111156104e6576104e66108c656fea26469706673582212207ee45659d92f214734f86af08366bdfe6c197710e62d5c81c42eaeaade55b02064736f6c63430008140033",
  "devdoc": {
    "kind": "dev",
    "methods": {},
    "version": 1
  },
  "userdoc": {
    "kind": "user",
    "methods": {},
    "version": 1
  },
  "storageLayout": {
    "storage": [
      {
        "astId": 21,
        "contract": "contracts/MyLearningNFT.sol:MyLearningNFT",
        "label": "_owners",
        "offset": 0,
        "slot": "0",
        "type": "t_mapping(t_uint256,t_address)"
      },
      {
        "astId": 25,
        "contract": "contracts/MyLearningNFT.sol:MyLearningNFT",
        "label": "_balances",
        "offset": 0,
        "slot": "1",
        "type": "t_mapping(t_address,t_uint256)"
      },
      {
        "astId": 29,
        "contract": "contracts/MyLearningNFT.sol:MyLearningNFT",
        "label": "_tokenApprovals",
        "offset": 0,
        "slot": "2",
        "type": "t_mapping(t_uint256,t_address)"
      },
      {
        "astId": 31,
        "contract": "contracts/MyLearningNFT.sol:MyLearningNFT",
        "label": "name",
        "offset": 0,
        "slot": "3",
        "type": "t_string_storage"
      },
      {
        "astId": 33,
        "contract": "contracts/MyLearningNFT.sol:MyLearningNFT",
        "label": "symbol",
        "offset": 0,
        "slot": "4",
        "type": "t_string_storage"
      },
      {
        "astId": 38,
        "contract": "contracts/MyLearningNFT.sol:MyLearningNFT",
        "label": "_tokenIdCounter",
        "offset": 0,
        "slot": "5",
        "type": "t_uint256"
      }
    ],
    "types": {
      "t_address": {
        "encoding": "inplace",
        "label": "address",
        "numberOfBytes": "20"
      },
      "t_mapping(t_address,t_uint256)": {
        "encoding": "mapping",
        "key": "t_address",
        "label": "mapping(address => uint256)",
        "numberOfBytes": "32",
        "value": "t_uint256"
      },
      "t_mapping(t_uint256,t_address)": {
        "encoding": "mapping",
        "key": "t_uint256",
        "label": "mapping(uint256 => address)",
        "numberOfBytes": "32",
        "value": "t_address"
      },
      "t_string_storage": {
        "encoding": "bytes",
        "label": "string",
        "numberOfBytes": "32"
      },
      "t_uint256": {
        "encoding": "inplace",
        "label": "uint256",
        "numberOfBytes": "32"
      }
    }
  }
}