{
  "address": "0x6FCC7268FD2F7aED5B8E6b28517b2E0cc1607700",
  "abi": [
    {
      "inputs": [
        {
          "internalType": "address",
          "name": "_owner",
          "type": "address"
        }
      ],
      "stateMutability": "nonpayable",
      "type": "constructor"
    },
    {
      "anonymous": false,
      "inputs": [
        {
          "indexed": true,
          "internalType": "address",
          "name": "owner",
          "type": "address"
        },
        {
          "indexed": false,
          "internalType": "uint256",
          "name": "amount",
          "type": "uint256"
        }
      ],
      "name": "ContractFunded",
      "type": "event"
    },
    {
      "anonymous": false,
      "inputs": [
        {
          "indexed": true,
          "internalType": "address",
          "name": "user",
          "type": "address"
        },
        {
          "indexed": false,
          "internalType": "uint256",
          "name": "courseId",
          "type": "uint256"
        },
        {
          "indexed": false,
          "internalType": "uint256",
          "name": "amount",
          "type": "uint256"
        }
      ],
      "name": "CourseStakeDeposited",
      "type": "event"
    },
    {
      "anonymous": false,
      "inputs": [
        {
          "indexed": true,
          "internalType": "address",
          "name": "user",
          "type": "address"
        },
        {
          "indexed": false,
          "internalType": "uint256",
          "name": "courseId",
          "type": "uint256"
        },
        {
          "indexed": false,
          "internalType": "uint256",
          "name": "amount",
          "type": "uint256"
        }
      ],
      "name": "CourseStakeWithdrawn",
      "type": "event"
    },
    {
      "anonymous": false,
      "inputs": [
        {
          "indexed": true,
          "internalType": "address",
          "name": "user",
          "type": "address"
        },
        {
          "indexed": false,
          "internalType": "uint256",
          "name": "amount",
          "type": "uint256"
        }
      ],
      "name": "RewardStakeClaimed",
      "type": "event"
    },
    {
      "anonymous": false,
      "inputs": [
        {
          "indexed": false,
          "internalType": "uint256",
          "name": "rewardId",
          "type": "uint256"
        },
        {
          "indexed": false,
          "internalType": "uint256",
          "name": "amount",
          "type": "uint256"
        }
      ],
      "name": "RewardStakeDeposited",
      "type": "event"
    },
    {
      "anonymous": false,
      "inputs": [
        {
          "indexed": true,
          "internalType": "address",
          "name": "user",
          "type": "address"
        },
        {
          "indexed": false,
          "internalType": "uint256",
          "name": "rewardId",
          "type": "uint256"
        },
        {
          "indexed": false,
          "internalType": "uint256",
          "name": "amount",
          "type": "uint256"
        }
      ],
      "name": "RewardStakeWithdrawn",
      "type": "event"
    },
    {
      "inputs": [
        {
          "internalType": "uint256",
          "name": "",
          "type": "uint256"
        }
      ],
      "name": "amountRewards",
      "outputs": [
        {
          "internalType": "uint256",
          "name": "",
          "type": "uint256"
        }
      ],
      "stateMutability": "view",
      "type": "function"
    },
    {
      "inputs": [
        {
          "internalType": "address",
          "name": "_user",
          "type": "address"
        },
        {
          "internalType": "uint256",
          "name": "_courseId",
          "type": "uint256"
        }
      ],
      "name": "checkWithdrawStatus",
      "outputs": [
        {
          "internalType": "bool",
          "name": "",
          "type": "bool"
        }
      ],
      "stateMutability": "view",
      "type": "function"
    },
    {
      "inputs": [
        {
          "internalType": "address",
          "name": "_user",
          "type": "address"
        },
        {
          "internalType": "uint256",
          "name": "amount",
          "type": "uint256"
        },
        {
          "internalType": "uint256",
          "name": "rewardIndex",
          "type": "uint256"
        }
      ],
      "name": "claimReward",
      "outputs": [],
      "stateMutability": "nonpayable",
      "type": "function"
    },
    {
      "inputs": [],
      "name": "contractTag",
      "outputs": [
        {
          "internalType": "string",
          "name": "",
          "type": "string"
        }
      ],
      "stateMutability": "view",
      "type": "function"
    },
    {
      "inputs": [
        {
          "internalType": "address",
          "name": "_user",
          "type": "address"
        },
        {
          "internalType": "uint256",
          "name": "_courseId",
          "type": "uint256"
        }
      ],
      "name": "depositCourseStake",
      "outputs": [],
      "stateMutability": "payable",
      "type": "function"
    },
    {
      "inputs": [
        {
          "internalType": "uint256",
          "name": "_rewardId",
          "type": "uint256"
        }
      ],
      "name": "depositRewardStake",
      "outputs": [],
      "stateMutability": "payable",
      "type": "function"
    },
    {
      "inputs": [],
      "name": "fundContract",
      "outputs": [],
      "stateMutability": "payable",
      "type": "function"
    },
    {
      "inputs": [],
      "name": "getContractBalance",
      "outputs": [
        {
          "internalType": "uint256",
          "name": "",
          "type": "uint256"
        }
      ],
      "stateMutability": "view",
      "type": "function"
    },
    {
      "inputs": [
        {
          "internalType": "address",
          "name": "_user",
          "type": "address"
        },
        {
          "internalType": "uint256",
          "name": "_courseId",
          "type": "uint256"
        }
      ],
      "name": "getStakeCourse",
      "outputs": [
        {
          "internalType": "uint256",
          "name": "",
          "type": "uint256"
        }
      ],
      "stateMutability": "view",
      "type": "function"
    },
    {
      "inputs": [
        {
          "internalType": "address",
          "name": "_user",
          "type": "address"
        }
      ],
      "name": "getTotalStakeCourses",
      "outputs": [
        {
          "internalType": "uint256",
          "name": "totalStake",
          "type": "uint256"
        },
        {
          "internalType": "uint256",
          "name": "courseCount",
          "type": "uint256"
        }
      ],
      "stateMutability": "view",
      "type": "function"
    },
    {
      "inputs": [
        {
          "internalType": "address",
          "name": "",
          "type": "address"
        },
        {
          "internalType": "uint256",
          "name": "",
          "type": "uint256"
        }
      ],
      "name": "hasWithdrawn",
      "outputs": [
        {
          "internalType": "bool",
          "name": "",
          "type": "bool"
        }
      ],
      "stateMutability": "view",
      "type": "function"
    },
    {
      "inputs": [],
      "name": "owner",
      "outputs": [
        {
          "internalType": "address",
          "name": "",
          "type": "address"
        }
      ],
      "stateMutability": "view",
      "type": "function"
    },
    {
      "inputs": [
        {
          "internalType": "address",
          "name": "",
          "type": "address"
        },
        {
          "internalType": "uint256",
          "name": "",
          "type": "uint256"
        }
      ],
      "name": "stakesCourses",
      "outputs": [
        {
          "internalType": "uint256",
          "name": "",
          "type": "uint256"
        }
      ],
      "stateMutability": "view",
      "type": "function"
    },
    {
      "inputs": [
        {
          "internalType": "address",
          "name": "",
          "type": "address"
        },
        {
          "internalType": "uint256",
          "name": "",
          "type": "uint256"
        }
      ],
      "name": "stakesRewards",
      "outputs": [
        {
          "internalType": "uint256",
          "name": "",
          "type": "uint256"
        }
      ],
      "stateMutability": "view",
      "type": "function"
    },
    {
      "inputs": [
        {
          "internalType": "address",
          "name": "_user",
          "type": "address"
        },
        {
          "internalType": "uint256",
          "name": "_courseId",
          "type": "uint256"
        }
      ],
      "name": "withdrawStakeCourse",
      "outputs": [],
      "stateMutability": "nonpayable",
      "type": "function"
    },
    {
      "inputs": [
        {
          "internalType": "address",
          "name": "_user",
          "type": "address"
        },
        {
          "internalType": "uint256",
          "name": "_rewardId",
          "type": "uint256"
        }
      ],
      "name": "withdrawStakeReward",
      "outputs": [],
      "stateMutability": "nonpayable",
      "type": "function"
    },
    {
      "stateMutability": "payable",
      "type": "receive"
    }
  ],
  "transactionHash": "0xad3e95f12e4a8bfb3d115e4a2bb518d0e43762801311b6cc038b82c0ad0ae816",
  "args": [
    "0xAAeCA2a5703a6ea642Dd7bCF73E1E9c39d26f12C"
  ],
  "numDeployments": 1,
  "solcInputHash": "377d2191a264e9c8bfe41996b0c07254",
  "bytecode": "0x608060405234801561001057600080fd5b50604051610dc9380380610dc983398101604081905261002f91610054565b600080546001600160a01b0319166001600160a01b0392909216919091179055610084565b60006020828403121561006657600080fd5b81516001600160a01b038116811461007d57600080fd5b9392505050565b610d36806100936000396000f3fe6080604052600436106100f75760003560e01c80638f29d4941161008a5780639d06fc9a116100595780639d06fc9a1461034a578063bd097e211461036a578063de2be47614610372578063f60e475f1461039257600080fd5b80638f29d4941461026657806390a25846146102795780639232317d146102ae57806392563939146102f457600080fd5b80634b2ed2c5116100c65780634b2ed2c5146101ce5780634e45382c146101fb5780636f9fb98a1461021b5780638da5cb5b1461022e57600080fd5b806307149028146101035780631411a978146101185780631af6e8641461013857806338e2bced1461018857600080fd5b366100fe57005b600080fd5b610116610111366004610bc2565b6103ca565b005b34801561012457600080fd5b50610116610133366004610bc2565b6104f4565b34801561014457600080fd5b50610173610153366004610bc2565b600660209081526000928352604080842090915290825290205460ff1681565b60405190151581526020015b60405180910390f35b34801561019457600080fd5b506101c06101a3366004610bc2565b600460209081526000928352604080842090915290825290205481565b60405190815260200161017f565b3480156101da57600080fd5b506101c06101e9366004610bec565b60036020526000908152604090205481565b34801561020757600080fd5b506101c0610216366004610bc2565b6106ad565b34801561022757600080fd5b50476101c0565b34801561023a57600080fd5b5060005461024e906001600160a01b031681565b6040516001600160a01b03909116815260200161017f565b610116610274366004610bec565b6106d8565b34801561028557600080fd5b50610299610294366004610c05565b610786565b6040805192835260208301919091520161017f565b3480156102ba57600080fd5b506101736102c9366004610bc2565b6001600160a01b03919091166000908152600660209081526040808320938352929052205460ff1690565b34801561030057600080fd5b5061033d6040518060400160405280601981526020017f5374616b696e67204d616e6167657220436f6e7472616374210000000000000081525081565b60405161017f9190610c27565b34801561035657600080fd5b50610116610365366004610c75565b610887565b610116610a00565b34801561037e57600080fd5b5061011661038d366004610bc2565b610a98565b34801561039e57600080fd5b506101c06103ad366004610bc2565b600160209081526000928352604080842090915290825290205481565b6000341161041f5760405162461bcd60e51b815260206004820152601f60248201527f5374616b65206d7573742062652067726561746572207468616e207a65726f0060448201526064015b60405180910390fd5b6001600160a01b03821660009081526001602090815260408083208484529091528120549003610475576001600160a01b0382166000908152600260209081526040822080546001810182559083529120018190555b6001600160a01b0382166000908152600160209081526040808320848452909152812080543492906104a8908490610cbe565b9091555050604080518281523460208201526001600160a01b038416917f70cfb3bcaf0f8b60d2ae00385960f0417a079ef6ff8572912effca5fc67d7a10910160405180910390a25050565b6001600160a01b0382166000908152600160209081526040808320848452909152902054806105715760405162461bcd60e51b8152602060048201526024808201527f4e6f207374616b6520746f20776974686472617720666f72207468697320636f6044820152637572736560e01b6064820152608401610416565b6001600160a01b038316600090815260066020908152604080832085845290915290205460ff16156105f55760405162461bcd60e51b815260206004820152602760248201527f5374616b6520616c72656164792077697468647261776e20666f72207468697360448201526620636f7572736560c81b6064820152608401610416565b6001600160a01b0383166000818152600160208181526040808420878552825280842084905584845260068252808420878552909152808320805460ff19169092179091555183156108fc0291849190818181858888f19350505050158015610662573d6000803e3d6000fd5b5060408051838152602081018390526001600160a01b038516917fd9a65d6e9427f8d2f1454b45141b12756ab49f9ed08a3e007431ce37cb80401991015b60405180910390a2505050565b6001600160a01b03821660009081526001602090815260408083208484529091529020545b92915050565b600034116107285760405162461bcd60e51b815260206004820152601f60248201527f5374616b65206d7573742062652067726561746572207468616e207a65726f006044820152606401610416565b60008181526003602052604081208054349290610746908490610cbe565b9091555050604080518281523460208201527f3cb34189bd2a7654d0affb099874974be434a453ef810510517a36c1d3483b30910160405180910390a150565b6001600160a01b03811660009081526002602090815260408083208054825181850281018501909352808352849384939291908301828280156107e857602002820191906000526020600020905b8154815260200190600101908083116107d4575b50505050509050600091506000925060005b8151811015610880576001600160a01b03851660009081526001602052604081208351829085908590811061083157610831610cd1565b60200260200101518152602001908152602001600020549050600081111561086d5761085d8186610cbe565b94508361086981610ce7565b9450505b508061087881610ce7565b9150506107fa565b5050915091565b600082116108e75760405162461bcd60e51b815260206004820152602760248201527f52657761726420616d6f756e74206d7573742062652067726561746572207468604482015266616e207a65726f60c81b6064820152608401610416565b814710156109375760405162461bcd60e51b815260206004820152601d60248201527f496e73756666696369656e7420636f6e74726163742062616c616e63650000006044820152606401610416565b6001600160a01b0383166000908152600460209081526040808320848452909152812054900361098d576001600160a01b0383166000908152600560209081526040822080546001810182559083529120018190555b6001600160a01b0383166000908152600460209081526040808320848452909152812080548492906109c0908490610cbe565b90915550506040518281526001600160a01b038416907f4bb07839151e3d1f6608be897be13377e4ed8908d333f50115370f576e400763906020016106a0565b60003411610a615760405162461bcd60e51b815260206004820152602860248201527f46756e64696e6720616d6f756e74206d7573742062652067726561746572207460448201526768616e207a65726f60c01b6064820152608401610416565b60405134815233907f0939f6f4877faf071412e527bc4c6d0bd65ad077e52b57334f7765265647a7f19060200160405180910390a2565b6001600160a01b038216600090815260016020908152604080832084845290915290205480610b155760405162461bcd60e51b8152602060048201526024808201527f4e6f207374616b6520746f20776974686472617720666f7220746869732072656044820152631dd85c9960e21b6064820152608401610416565b6001600160a01b03831660008181526004602090815260408083208684529091528082208290555183156108fc0291849190818181858888f19350505050158015610b64573d6000803e3d6000fd5b5060408051838152602081018390526001600160a01b038516917fe3c8f3cf9249b2335f9804fcaf0da214615c1ccca8c780b85b851911cc8a23fe91016106a0565b80356001600160a01b0381168114610bbd57600080fd5b919050565b60008060408385031215610bd557600080fd5b610bde83610ba6565b946020939093013593505050565b600060208284031215610bfe57600080fd5b5035919050565b600060208284031215610c1757600080fd5b610c2082610ba6565b9392505050565b600060208083528351808285015260005b81811015610c5457858101830151858201604001528201610c38565b506000604082860101526040601f19601f8301168501019250505092915050565b600080600060608486031215610c8a57600080fd5b610c9384610ba6565b95602085013595506040909401359392505050565b634e487b7160e01b600052601160045260246000fd5b808201808211156106d2576106d2610ca8565b634e487b7160e01b600052603260045260246000fd5b600060018201610cf957610cf9610ca8565b506001019056fea264697066735822122013e01f9188d6846511f3c93ef8967bdc16bf39755530ded2c39d7a2e0123f32164736f6c63430008140033",
  "devdoc": {
    "kind": "dev",
    "methods": {},
    "version": 1
  },
  "userdoc": {
    "kind": "user",
    "methods": {},
    "version": 1
  },
  "storageLayout": {
    "storage": [
      {
        "astId": 2911,
        "contract": "contracts/StakingManager.sol:StakingManager",
        "label": "owner",
        "offset": 0,
        "slot": "0",
        "type": "t_address"
      },
      {
        "astId": 2917,
        "contract": "contracts/StakingManager.sol:StakingManager",
        "label": "stakesCourses",
        "offset": 0,
        "slot": "1",
        "type": "t_mapping(t_address,t_mapping(t_uint256,t_uint256))"
      },
      {
        "astId": 2922,
        "contract": "contracts/StakingManager.sol:StakingManager",
        "label": "userCourses",
        "offset": 0,
        "slot": "2",
        "type": "t_mapping(t_address,t_array(t_uint256)dyn_storage)"
      },
      {
        "astId": 2926,
        "contract": "contracts/StakingManager.sol:StakingManager",
        "label": "amountRewards",
        "offset": 0,
        "slot": "3",
        "type": "t_mapping(t_uint256,t_uint256)"
      },
      {
        "astId": 2932,
        "contract": "contracts/StakingManager.sol:StakingManager",
        "label": "stakesRewards",
        "offset": 0,
        "slot": "4",
        "type": "t_mapping(t_address,t_mapping(t_uint256,t_uint256))"
      },
      {
        "astId": 2937,
        "contract": "contracts/StakingManager.sol:StakingManager",
        "label": "userRewards",
        "offset": 0,
        "slot": "5",
        "type": "t_mapping(t_address,t_array(t_uint256)dyn_storage)"
      },
      {
        "astId": 2943,
        "contract": "contracts/StakingManager.sol:StakingManager",
        "label": "hasWithdrawn",
        "offset": 0,
        "slot": "6",
        "type": "t_mapping(t_address,t_mapping(t_uint256,t_bool))"
      }
    ],
    "types": {
      "t_address": {
        "encoding": "inplace",
        "label": "address",
        "numberOfBytes": "20"
      },
      "t_array(t_uint256)dyn_storage": {
        "base": "t_uint256",
        "encoding": "dynamic_array",
        "label": "uint256[]",
        "numberOfBytes": "32"
      },
      "t_bool": {
        "encoding": "inplace",
        "label": "bool",
        "numberOfBytes": "1"
      },
      "t_mapping(t_address,t_array(t_uint256)dyn_storage)": {
        "encoding": "mapping",
        "key": "t_address",
        "label": "mapping(address => uint256[])",
        "numberOfBytes": "32",
        "value": "t_array(t_uint256)dyn_storage"
      },
      "t_mapping(t_address,t_mapping(t_uint256,t_bool))": {
        "encoding": "mapping",
        "key": "t_address",
        "label": "mapping(address => mapping(uint256 => bool))",
        "numberOfBytes": "32",
        "value": "t_mapping(t_uint256,t_bool)"
      },
      "t_mapping(t_address,t_mapping(t_uint256,t_uint256))": {
        "encoding": "mapping",
        "key": "t_address",
        "label": "mapping(address => mapping(uint256 => uint256))",
        "numberOfBytes": "32",
        "value": "t_mapping(t_uint256,t_uint256)"
      },
      "t_mapping(t_uint256,t_bool)": {
        "encoding": "mapping",
        "key": "t_uint256",
        "label": "mapping(uint256 => bool)",
        "numberOfBytes": "32",
        "value": "t_bool"
      },
      "t_mapping(t_uint256,t_uint256)": {
        "encoding": "mapping",
        "key": "t_uint256",
        "label": "mapping(uint256 => uint256)",
        "numberOfBytes": "32",
        "value": "t_uint256"
      },
      "t_uint256": {
        "encoding": "inplace",
        "label": "uint256",
        "numberOfBytes": "32"
      }
    }
  }
}