{
  "address": "0xf3501D5000B0b626F6a737F75ceb1B89D0f19D17",
  "abi": [
    {
      "inputs": [
        {
          "internalType": "address",
          "name": "_owner",
          "type": "address"
        }
      ],
      "stateMutability": "nonpayable",
      "type": "constructor"
    },
    {
      "anonymous": false,
      "inputs": [
        {
          "indexed": true,
          "internalType": "address",
          "name": "greetingSetter",
          "type": "address"
        },
        {
          "indexed": false,
          "internalType": "string",
          "name": "newGreeting",
          "type": "string"
        },
        {
          "indexed": false,
          "internalType": "bool",
          "name": "premium",
          "type": "bool"
        },
        {
          "indexed": false,
          "internalType": "uint256",
          "name": "value",
          "type": "uint256"
        }
      ],
      "name": "GreetingChange",
      "type": "event"
    },
    {
      "inputs": [],
      "name": "counter",
      "outputs": [
        {
          "internalType": "uint256",
          "name": "",
          "type": "uint256"
        }
      ],
      "stateMutability": "view",
      "type": "function"
    },
    {
      "inputs": [],
      "name": "decrement",
      "outputs": [],
      "stateMutability": "nonpayable",
      "type": "function"
    },
    {
      "inputs": [],
      "name": "greeting",
      "outputs": [
        {
          "internalType": "string",
          "name": "",
          "type": "string"
        }
      ],
      "stateMutability": "view",
      "type": "function"
    },
    {
      "inputs": [],
      "name": "increment",
      "outputs": [],
      "stateMutability": "nonpayable",
      "type": "function"
    },
    {
      "inputs": [],
      "name": "owner",
      "outputs": [
        {
          "internalType": "address",
          "name": "",
          "type": "address"
        }
      ],
      "stateMutability": "view",
      "type": "function"
    },
    {
      "inputs": [],
      "name": "premium",
      "outputs": [
        {
          "internalType": "bool",
          "name": "",
          "type": "bool"
        }
      ],
      "stateMutability": "view",
      "type": "function"
    },
    {
      "inputs": [
        {
          "internalType": "string",
          "name": "_newGreeting",
          "type": "string"
        }
      ],
      "name": "setGreeting",
      "outputs": [],
      "stateMutability": "payable",
      "type": "function"
    },
    {
      "inputs": [],
      "name": "totalCounter",
      "outputs": [
        {
          "internalType": "uint256",
          "name": "",
          "type": "uint256"
        }
      ],
      "stateMutability": "view",
      "type": "function"
    },
    {
      "inputs": [
        {
          "internalType": "address",
          "name": "",
          "type": "address"
        }
      ],
      "name": "userGreetingCounter",
      "outputs": [
        {
          "internalType": "uint256",
          "name": "",
          "type": "uint256"
        }
      ],
      "stateMutability": "view",
      "type": "function"
    },
    {
      "inputs": [],
      "name": "withdraw",
      "outputs": [],
      "stateMutability": "nonpayable",
      "type": "function"
    },
    {
      "stateMutability": "payable",
      "type": "receive"
    }
  ],
  "transactionHash": "0x0e635698f301f718ff9fe81859b9564b6c37ea038fdc851df0f4fb0ad3388e0c",
  "args": [
    "0xAAeCA2a5703a6ea642Dd7bCF73E1E9c39d26f12C"
  ],
  "numDeployments": 1,
  "solcInputHash": "320878d1445d67937762bb1efd3182b4",
  "bytecode": "0x602a60005560e0604052601c60a09081527f4275696c64696e6720556e73746f707061626c6520417070732121210000000060c052600190610041908261012c565b506002805460ff19169055600060035534801561005d57600080fd5b50604051610b4a380380610b4a83398101604081905261007c916101eb565b6001600160a01b031660805261021b565b634e487b7160e01b600052604160045260246000fd5b600181811c908216806100b757607f821691505b6020821081036100d757634e487b7160e01b600052602260045260246000fd5b50919050565b601f82111561012757600081815260208120601f850160051c810160208610156101045750805b601f850160051c820191505b8181101561012357828155600101610110565b5050505b505050565b81516001600160401b038111156101455761014561008d565b6101598161015384546100a3565b846100dd565b602080601f83116001811461018e57600084156101765750858301515b600019600386901b1c1916600185901b178555610123565b600085815260208120601f198616915b828110156101bd5788860151825594840194600190910190840161019e565b50858210156101db5787850151600019600388901b60f8161c191681555b5050505050600190811b01905550565b6000602082840312156101fd57600080fd5b81516001600160a01b038116811461021457600080fd5b9392505050565b608051610906610244600039600081816101080152818161021d015261028301526109066000f3fe6080604052600436106100955760003560e01c8063a413686211610059578063a413686214610158578063cea49c3c1461016b578063d09de08a14610198578063e0a73a93146101ad578063ef690cc0146101d757600080fd5b80632baeceb7146100a15780633ccfd60b146100b857806361bc221a146100cd5780638da5cb5b146100f657806397feba9d1461014257600080fd5b3661009c57005b600080fd5b3480156100ad57600080fd5b506100b66101f9565b005b3480156100c457600080fd5b506100b6610212565b3480156100d957600080fd5b506100e360005481565b6040519081526020015b60405180910390f35b34801561010257600080fd5b5061012a7f000000000000000000000000000000000000000000000000000000000000000081565b6040516001600160a01b0390911681526020016100ed565b34801561014e57600080fd5b506100e360035481565b6100b6610166366004610588565b61033c565b34801561017757600080fd5b506100e3610186366004610639565b60046020526000908152604090205481565b3480156101a457600080fd5b506100b661040e565b3480156101b957600080fd5b506002546101c79060ff1681565b60405190151581526020016100ed565b3480156101e357600080fd5b506101ec610473565b6040516100ed91906106af565b600160008082825461020b91906106d8565b9091555050565b336001600160a01b037f0000000000000000000000000000000000000000000000000000000000000000161461027f5760405162461bcd60e51b815260206004820152600d60248201526c2737ba103a34329027bbb732b960991b60448201526064015b60405180910390fd5b60007f00000000000000000000000000000000000000000000000000000000000000006001600160a01b03164760405160006040518083038185875af1925050503d80600081146102ec576040519150601f19603f3d011682016040523d82523d6000602084013e6102f1565b606091505b50509050806103395760405162461bcd60e51b81526020600482015260146024820152732330b4b632b2103a379039b2b7321022ba3432b960611b6044820152606401610276565b50565b61035f6040518060600160405280602181526020016108b0602191398233610501565b600161036b8282610779565b5060016003600082825461037f9190610839565b90915550503360009081526004602052604081208054600192906103a4908490610839565b909155505034156103c1576002805460ff191660011790556103cc565b6002805460ff191690555b60405133907f94cbd7e04dca26a7667654f6448b2ca0a40fec602118dc5fd8c82b9cf3c645ad90610403908490348015159161084c565b60405180910390a250565b7366984db08686fcfe2902daf68dbea6a13bb0e77e33146104615760405162461bcd60e51b815260206004820152600d60248201526c2737ba103a34329027bbb732b960991b6044820152606401610276565b600160008082825461020b9190610839565b60018054610480906106f1565b80601f01602080910402602001604051908101604052809291908181526020018280546104ac906106f1565b80156104f95780601f106104ce576101008083540402835291602001916104f9565b820191906000526020600020905b8154815290600101906020018083116104dc57829003601f168201915b505050505081565b61054883838360405160240161051993929190610871565b60408051601f198184030181529190526020810180516001600160e01b03166395ed019560e01b17905261054d565b505050565b6103398160006a636f6e736f6c652e6c6f679050600080835160208501845afa505050565b634e487b7160e01b600052604160045260246000fd5b60006020828403121561059a57600080fd5b813567ffffffffffffffff808211156105b257600080fd5b818401915084601f8301126105c657600080fd5b8135818111156105d8576105d8610572565b604051601f8201601f19908116603f0116810190838211818310171561060057610600610572565b8160405282815287602084870101111561061957600080fd5b826020860160208301376000928101602001929092525095945050505050565b60006020828403121561064b57600080fd5b81356001600160a01b038116811461066257600080fd5b9392505050565b6000815180845260005b8181101561068f57602081850181015186830182015201610673565b506000602082860101526020601f19601f83011685010191505092915050565b6020815260006106626020830184610669565b634e487b7160e01b600052601160045260246000fd5b818103818111156106eb576106eb6106c2565b92915050565b600181811c9082168061070557607f821691505b60208210810361072557634e487b7160e01b600052602260045260246000fd5b50919050565b601f82111561054857600081815260208120601f850160051c810160208610156107525750805b601f850160051c820191505b818110156107715782815560010161075e565b505050505050565b815167ffffffffffffffff81111561079357610793610572565b6107a7816107a184546106f1565b8461072b565b602080601f8311600181146107dc57600084156107c45750858301515b600019600386901b1c1916600185901b178555610771565b600085815260208120601f198616915b8281101561080b578886015182559484019460019091019084016107ec565b50858210156108295787850151600019600388901b60f8161c191681555b5050505050600190811b01905550565b808201808211156106eb576106eb6106c2565b60608152600061085f6060830186610669565b93151560208301525060400152919050565b6060815260006108846060830186610669565b82810360208401526108968186610669565b91505060018060a01b038316604083015294935050505056fe53657474696e67206e6577206772656574696e6720272573272066726f6d202573a2646970667358221220d0a71edf09b316632b17f6b183077b2ee33d4bfc23562b6949b807d2d4898bc564736f6c63430008140033",
  "devdoc": {
    "author": "BuidlGuidl",
    "kind": "dev",
    "methods": {
      "setGreeting(string)": {
        "params": {
          "_newGreeting": "(string memory) - new greeting to save on the contract"
        }
      }
    },
    "version": 1
  },
  "userdoc": {
    "kind": "user",
    "methods": {
      "setGreeting(string)": {
        "notice": "Function that allows anyone to change the state variable \"greeting\" of the contract and increase the counters"
      },
      "withdraw()": {
        "notice": "Function that allows the owner to withdraw all the Ether in the contract The function can only be called by the owner of the contract as defined by the isOwner modifier"
      }
    },
    "notice": "A smart contract that allows changing a state variable of the contract and tracking the changes It also allows the owner to withdraw the Ether in the contract",
    "version": 1
  },
  "storageLayout": {
    "storage": [
      {
        "astId": 6,
        "contract": "contracts/YourContract.sol:YourContract",
        "label": "counter",
        "offset": 0,
        "slot": "0",
        "type": "t_uint256"
      },
      {
        "astId": 35,
        "contract": "contracts/YourContract.sol:YourContract",
        "label": "greeting",
        "offset": 0,
        "slot": "1",
        "type": "t_string_storage"
      },
      {
        "astId": 38,
        "contract": "contracts/YourContract.sol:YourContract",
        "label": "premium",
        "offset": 0,
        "slot": "2",
        "type": "t_bool"
      },
      {
        "astId": 41,
        "contract": "contracts/YourContract.sol:YourContract",
        "label": "totalCounter",
        "offset": 0,
        "slot": "3",
        "type": "t_uint256"
      },
      {
        "astId": 45,
        "contract": "contracts/YourContract.sol:YourContract",
        "label": "userGreetingCounter",
        "offset": 0,
        "slot": "4",
        "type": "t_mapping(t_address,t_uint256)"
      }
    ],
    "types": {
      "t_address": {
        "encoding": "inplace",
        "label": "address",
        "numberOfBytes": "20"
      },
      "t_bool": {
        "encoding": "inplace",
        "label": "bool",
        "numberOfBytes": "1"
      },
      "t_mapping(t_address,t_uint256)": {
        "encoding": "mapping",
        "key": "t_address",
        "label": "mapping(address => uint256)",
        "numberOfBytes": "32",
        "value": "t_uint256"
      },
      "t_string_storage": {
        "encoding": "bytes",
        "label": "string",
        "numberOfBytes": "32"
      },
      "t_uint256": {
        "encoding": "inplace",
        "label": "uint256",
        "numberOfBytes": "32"
      }
    }
  }
}